{"abi":[{"type":"constructor","inputs":[],"stateMutability":"nonpayable"},{"type":"receive","stateMutability":"payable"},{"type":"function","name":"UsdSalaryAvailable","inputs":[{"name":"employee","type":"address","internalType":"address"}],"outputs":[{"name":"","type":"uint256","internalType":"uint256"}],"stateMutability":"view"},{"type":"function","name":"_salaryAvailable","inputs":[{"name":"employee","type":"address","internalType":"address"}],"outputs":[{"name":"","type":"uint256","internalType":"uint256"}],"stateMutability":"view"},{"type":"function","name":"_withdrawSalary","inputs":[],"outputs":[],"stateMutability":"nonpayable"},{"type":"function","name":"activeEmployeeCount","inputs":[],"outputs":[{"name":"","type":"uint256","internalType":"uint256"}],"stateMutability":"view"},{"type":"function","name":"getActiveEmployeeCount","inputs":[],"outputs":[{"name":"","type":"uint256","internalType":"uint256"}],"stateMutability":"view"},{"type":"function","name":"getEmployeeInfo","inputs":[{"name":"employee","type":"address","internalType":"address"}],"outputs":[{"name":"","type":"uint256","internalType":"uint256"},{"name":"","type":"uint256","internalType":"uint256"},{"name":"","type":"uint256","internalType":"uint256"}],"stateMutability":"view"},{"type":"function","name":"getLatestETHPrice","inputs":[],"outputs":[{"name":"","type":"uint256","internalType":"uint256"}],"stateMutability":"view"},{"type":"function","name":"hrManager","inputs":[],"outputs":[{"name":"","type":"address","internalType":"address"}],"stateMutability":"view"},{"type":"function","name":"registerEmployee","inputs":[{"name":"employee","type":"address","internalType":"address"},{"name":"weeklyUsdSalary","type":"uint256","internalType":"uint256"}],"outputs":[],"stateMutability":"nonpayable"},{"type":"function","name":"salaryAvailable","inputs":[{"name":"employee","type":"address","internalType":"address"}],"outputs":[{"name":"","type":"uint256","internalType":"uint256"}],"stateMutability":"view"},{"type":"function","name":"switchCurrency","inputs":[],"outputs":[],"stateMutability":"nonpayable"},{"type":"function","name":"terminateEmployee","inputs":[{"name":"employee","type":"address","internalType":"address"}],"outputs":[],"stateMutability":"nonpayable"},{"type":"function","name":"usdcAddress","inputs":[],"outputs":[{"name":"","type":"address","internalType":"address"}],"stateMutability":"view"},{"type":"function","name":"wethAddress","inputs":[],"outputs":[{"name":"","type":"address","internalType":"address"}],"stateMutability":"view"},{"type":"function","name":"withdrawSalary","inputs":[],"outputs":[],"stateMutability":"nonpayable"},{"type":"event","name":"CurrencySwitched","inputs":[{"name":"employee","type":"address","indexed":true,"internalType":"address"},{"name":"isEth","type":"bool","indexed":false,"internalType":"bool"}],"anonymous":false},{"type":"event","name":"EmployeeRegistered","inputs":[{"name":"employee","type":"address","indexed":true,"internalType":"address"},{"name":"weeklyUsdSalary","type":"uint256","indexed":false,"internalType":"uint256"}],"anonymous":false},{"type":"event","name":"EmployeeTerminated","inputs":[{"name":"employee","type":"address","indexed":true,"internalType":"address"}],"anonymous":false},{"type":"event","name":"SalaryWithdrawn","inputs":[{"name":"employee","type":"address","indexed":true,"internalType":"address"},{"name":"isEth","type":"bool","indexed":false,"internalType":"bool"},{"name":"amount","type":"uint256","indexed":false,"internalType":"uint256"}],"anonymous":false},{"type":"error","name":"EmployeeAlreadyRegistered","inputs":[]},{"type":"error","name":"EmployeeNotRegistered","inputs":[]},{"type":"error","name":"NotAuthorized","inputs":[]},{"type":"error","name":"ReentrancyGuardReentrantCall","inputs":[]}],"bytecode":{"object":"0x608060405234801561001057600080fd5b506001600081905580546001600160a01b031990811633179091556002805482167313e3ee699d1909e989722e753853ae30b17e08c517905560038054821673e592427a0aece92de3edee1f18e0157c05861564179055600480548216730b2c639c533813f4aa9d7837caf62653d097ff8517905560058054909116734200000000000000000000000000000000000006179055610f14806100b36000396000f3fe6080604052600436106100ec5760003560e01c80639005b2c41161008a578063c0b7a33111610059578063c0b7a331146102e5578063ca682897146102fb578063d75c7da81461031b578063dbaf1ff61461033957600080fd5b80639005b2c41461027b5780639c0609c7146102905780639f917208146102b0578063bc367346146102c557600080fd5b80635ac09b2b116100c65780635ac09b2b146101745780636fa5060414610224578063777e0d86146102465780638870319f1461025b57600080fd5b806302d45457146100f857806309d2c948146101355780634f0e0ef31461015457600080fd5b366100f357005b600080fd5b34801561010457600080fd5b50600454610118906001600160a01b031681565b6040516001600160a01b0390911681526020015b60405180910390f35b34801561014157600080fd5b506007545b60405190815260200161012c565b34801561016057600080fd5b50600554610118906001600160a01b031681565b34801561018057600080fd5b5061020961018f366004610d48565b6001600160a01b0316600090815260066020818152604092839020835160e081018552815480825260018301549382018490526002830154958201869052600383015460ff9081161515606084015260048401546080840152600584015460a08401529290940154909116151560c0909101529092909190565b6040805193845260208401929092529082015260600161012c565b34801561023057600080fd5b5061024461023f366004610d48565b61034e565b005b34801561025257600080fd5b5061014661045f565b34801561026757600080fd5b50610146610276366004610d48565b610529565b34801561028757600080fd5b5061024461053a565b34801561029c57600080fd5b506101466102ab366004610d48565b61058d565b3480156102bc57600080fd5b5061024461060a565b3480156102d157600080fd5b506101466102e0366004610d48565b610a6a565b3480156102f157600080fd5b5061014660075481565b34801561030757600080fd5b50610244610316366004610d6a565b610b36565b34801561032757600080fd5b506001546001600160a01b0316610118565b34801561034557600080fd5b50610244610c6c565b6001546001600160a01b031633146103795760405163ea8e4eb560e01b815260040160405180910390fd5b6001600160a01b038116600090815260066020526040812060018101549091036103b65760405163552ca72960e11b815260040160405180910390fd5b600062093a808260040154426103cc9190610daa565b83546103d89190610dbd565b6103e29190610dd4565b9050808260050160008282546103f89190610df6565b909155505042600483018190556002830155600060018301819055600780549161042183610e09565b90915550506040516001600160a01b038416907f021486dfbd7f040ab70e45ec6effb9c9d32f2dd193871c6bf768d97dc277d7d090600090a2505050565b600080600260009054906101000a90046001600160a01b03166001600160a01b031663feaf968c6040518163ffffffff1660e01b815260040160a060405180830381865afa1580156104b5573d6000803e3d6000fd5b505050506040513d601f19601f820116820180604052508101906104d99190610e3a565b505050915050600081136105245760405162461bcd60e51b815260206004820152600d60248201526c496e76616c696420707269636560981b60448201526064015b60405180910390fd5b919050565b60006105348261058d565b92915050565b610542610d07565b3360009081526006602081905260408220015460ff16151590036105795760405163ea8e4eb560e01b815260040160405180910390fd5b61058161060a565b61058b6001600055565b565b6001600160a01b0381166000908152600660205260408120816105af84610a6a565b600383015490915060ff16156105f05760006105c961045f565b90506000816105dc846305f5e100610dbd565b6105e69190610dd4565b9695505050505050565b600061060164e8d4a5100083610dd4565b95945050505050565b3360009081526006602081905260408220015460ff16151590036106415760405163ea8e4eb560e01b815260040160405180910390fd5b3360008181526006602052604081209161065a90610a6a565b42600484015560006005840155600383015490915060ff161561099c57600061068161045f565b9050600081610694846305f5e100610dbd565b61069e9190610dd4565b905060006106b164e8d4a5100085610dd4565b6004805460035460405163095ea7b360e01b81526001600160a01b039182169381019390935260248301849052929350919091169063095ea7b3906044016020604051808303816000875af115801561070e573d6000803e3d6000fd5b505050506040513d601f19601f820116820180604052508101906107329190610e8a565b5060408051610100810182526004546001600160a01b039081168252600554166020820152610bb8918101919091523060608201526000906080810161077942601e610df6565b8152602081018490526040016064610792866062610dbd565b61079c9190610dd4565b8152600060209182018190526003546040805163414bf38960e01b815285516001600160a01b03908116600483015294860151851660248201529085015162ffffff1660448201526060850151841660648201526080850151608482015260a085015160a482015260c085015160c482015260e0850151841660e4820152939450909291169063414bf38990610104016020604051808303816000875af115801561084b573d6000803e3d6000fd5b505050506040513d601f19601f8201168201806040525081019061086f9190610eac565b600554604051632e1a7d4d60e01b8152600481018390529192506001600160a01b031690632e1a7d4d90602401600060405180830381600087803b1580156108b657600080fd5b505af11580156108ca573d6000803e3d6000fd5b50506040516000925033915083908381818185875af1925050503d8060008114610910576040519150601f19603f3d011682016040523d82523d6000602084013e610915565b606091505b50509050806109565760405162461bcd60e51b815260206004820152600d60248201526c1d1c985b9cd9995c8819985a5b609a1b604482015260640161051b565b60408051600181526020810184905233917f3a40c2426fae597f255951175f1d1841f6a0ce952ad70d527ac712a836134deb910160405180910390a25050505050505050565b60006109ad64e8d4a5100083610dd4565b6004805460405163a9059cbb60e01b81523392810192909252602482018390529192506001600160a01b039091169063a9059cbb906044016020604051808303816000875af1158015610a04573d6000803e3d6000fd5b505050506040513d601f19601f82011682018060405250810190610a289190610e8a565b5060408051600081526020810183905233917f3a40c2426fae597f255951175f1d1841f6a0ce952ad70d527ac712a836134deb910160405180910390a2505050565b6001600160a01b038116600090815260066020819052604082209081015460ff1615158203610a9c5750600092915050565b60008160020154600003610ab05742610ab6565b81600201545b90508160020154600014158015610ad4575081600401548260020154105b15610ae3575060009392505050565b6000826004015482610af59190610daa565b9050600062093a80828560000154610b0d9190610dbd565b610b179190610dd4565b90506000846005015482610b2b9190610df6565b979650505050505050565b6001546001600160a01b03163314610b615760405163ea8e4eb560e01b815260040160405180910390fd5b6001600160a01b03821660009081526006602052604090206001015415801590610ba457506001600160a01b038216600090815260066020526040902060020154155b15610bc25760405163226744f960e21b815260040160405180910390fd5b6001600160a01b038216600090815260066020819052604082208381554260018083018290556002830185905560038301805460ff1990811690915560048401929092559190920180549092161790556007805491610c2083610ec5565b9190505550816001600160a01b03167f8235117616296a5606417b9a4405cbbdc80ae25e515ca1d48fc665c0b6ba66af82604051610c6091815260200190565b60405180910390a25050565b336000908152600660205260408120600101549003610c9e5760405163ea8e4eb560e01b815260040160405180910390fd5b336000908152600660205260409020610cb561060a565b60038101805460ff8082161560ff19909216821790925560405191161515815233907fe8c2df869f2d26bf2330e294ee3285d4e3f17bfe1c57cb6113e07d8b1b6ef3a89060200160405180910390a250565b600260005403610d2a57604051633ee5aeb560e01b815260040160405180910390fd5b6002600055565b80356001600160a01b038116811461052457600080fd5b600060208284031215610d5a57600080fd5b610d6382610d31565b9392505050565b60008060408385031215610d7d57600080fd5b610d8683610d31565b946020939093013593505050565b634e487b7160e01b600052601160045260246000fd5b8181038181111561053457610534610d94565b808202811582820484141761053457610534610d94565b600082610df157634e487b7160e01b600052601260045260246000fd5b500490565b8082018082111561053457610534610d94565b600081610e1857610e18610d94565b506000190190565b805169ffffffffffffffffffff8116811461052457600080fd5b600080600080600060a08688031215610e5257600080fd5b610e5b86610e20565b9450602086015193506040860151925060608601519150610e7e60808701610e20565b90509295509295909350565b600060208284031215610e9c57600080fd5b81518015158114610d6357600080fd5b600060208284031215610ebe57600080fd5b5051919050565b600060018201610ed757610ed7610d94565b506001019056fea264697066735822122036da8081010a9a7a117ada780df56ed0c78b5f760b77c5ddccc69f4f7d0a62d164736f6c63430008180033","linkReferences":{}},"methodIdentifiers":{"UsdSalaryAvailable(address)":"bc367346","_salaryAvailable(address)":"9c0609c7","_withdrawSalary()":"9f917208","activeEmployeeCount()":"c0b7a331","getActiveEmployeeCount()":"09d2c948","getEmployeeInfo(address)":"5ac09b2b","getLatestETHPrice()":"777e0d86","hrManager()":"d75c7da8","registerEmployee(address,uint256)":"ca682897","salaryAvailable(address)":"8870319f","switchCurrency()":"dbaf1ff6","terminateEmployee(address)":"6fa50604","usdcAddress()":"02d45457","wethAddress()":"4f0e0ef3","withdrawSalary()":"9005b2c4"},"id":25}